:20000000004E0020ED590000FDC90110FDC90110FDC90110FDC90110FDC90110FDC9011022
:1C002000FDC90110FDC90110FDC90110FDC90110FDC90110FDC901103BCA0110A4
:20003C0055040021B9040021DB0400210705002149050021C905002179060021F8B510471D
:20005C00F8B50E4600210125AD04304770B50047F8B50047F0B4084770B5034615460129CE
:20007C0006D0002906D0114A2846FFF7E7FF70BD0F4800E00F480524834203D84008641E9C
:20009C00002CF9DCE340012040031818820B012907D00649002380312846FFF7D1FFE0B215
:2000BC0070BD0249044B6C31F6E70000835C0000A0BC862300830D23AC06002110B51B4851
:2000DC0000214156491C02D11949C97A0170184918486031C8821848FFF7B8FF10BD10B5C3
:2000FC001648C47A1648FFF7B3FFA0070CD00F4900200856421C07D00F22120210430C4AC6
:20011C006032D082FF20087010BD10B5074800214156491C02D10649C97A017004490948D6
:20013C006031C8820848FFF791FF10BDDC06002100620840070F0000694A0000600200212C
:20015C00E54C000008080000C94B0000F8B51A4E0546716B1948CC09E401002D11D0184968
:20017C00097802290FD0007B044372B60120154F4002B847114820380088C109C90704D081
:20019C0016E0C07AF0E7407BEEE70F497463CC61400AC0070CD001208003316B002D01D025
:2001BC00014300E08143084631630749403948630020B84762B6F8BD8002002188000021AD
:2001DC009B0200217B3F00004040044010B5224A0021516121498968C90009D42149204BED
:2001FC00CA0598424B6B01D8134300E093434B631D49FFF72FFF10BD38B51A4D287F002877
:20021C0027D11A480088C009C00722D1124C606900281ED1684600F045F8684600780128F5
:20023C0017D168464078102813D208206061686A4009400120600E4A0021D1620D4A02214C
:20025C001160012108432060032108436862206038BD0948804738BD0040044018000021AC
:20027C000000930880020021CF680000680000210011044080E200E0C33B00000749002857
:20029C0000D00420064A72B60978C90701D0105800E0802062B640B2704700006B0200217D
:2002BC005860044003B40148019001BDA56F000000000000010003000A001F005900EB0052
:2002DC003902EA04F9099712EB1FA132784A0A66FA828C9E63B617C964D6EDDEC1E3E0E512
:2002FC00FF000000190880801B08808007088080060880800B2000C0132000C00C2000C0B8
:20031C000F2000C0122000C00D0080800400C0800500C0800E00C0801A00808014008080CE
:20033C001800C0801E00C0800300C080FE0000008F3F00008F3F01008F3F02008F3F03006C
:20035C00903F00018F3F0101903F0002903F00038F3F01048F3F00058F1208048F3F000419
:20037C008F3F0006513F00007F3F01003F3F04003F3F02003F3F01007F3F02007B756E6B34
:20039C006E6F776E2D696E7374616E63652D6E616D657D007B656D7074792D696E737461BC
:2003BC006E63652D6E616D657D00C0467B7374617469632D696E7374616E63652D6E616DAC
:2003DC00657D00C00000000020000000400000006000000000000000080000000000000097
:2003FC000600000002000000860000008200000000000000080000001000000018000000A1
:20041C0020000000A1490000FD54000091630000FD2C0000C93E00009B660000454D0000AE
:20043C0029330000A16600008547000000000000FFFFFFFFFFFFFFFF000000000000000079
:20045C000101010100C2010003000000000000007BC80110C5BC0110D9B2011033C201102E
:20047C00BDAD0110C1B101106DBA011065BB01101DC001102004000048140020A8040000BF
:20049C00000000000000000000000000001000400600000015000000FF00000000000000D6
:2004BC000302FFFF010000000000000000000000000001000000000000000000953C00004A
:2004DC00B54D000001010100FFFFFFFFC40900000100000041B5011095A6011015B8011000
:1804FC00FF00000000000000FFFF00000A000000C41E0020FD61000081
:20051800000909DC00010907000101091A00C1630000AD550000C96600000200DF7D384074
:200538003A002040007F64404000A3840600410104C007B133058305480A0306B87A02006C
:200558009F84020044C703040102638410004302B0048460F13583880300A388FB00886033
:200578001A000200DF7D88601A000200F80C0904FF0C1D00200C1D00200904000109070027
:20059800040908000200000811002009040007C201100910000109130001090B00C5A7094C
:2005B800060015650908000100341F0020C5A7090E00C5A7090600C5A70906004011090A41
:2005D80000010905000100B41D0020B41D00204011090A00010905000100D01D0020D01DA3
:2005F8000020D81D0020D81D0020E01D0020E01D0020E81D0020E81D0020F01D0020F01DDB
:200618000020F81D0020F81D0020001E0020001E0020081E0020081E0020A944090A00052B
:20063800000000200910001E00200904000738090B000121030F0080002404A00008003F08
:20065800A7B41C002064030080050000000238090B00011888DE510B937DAABB01094C000B
:200678009C0100209C0100200100000001090B00CB5C090600E41E0020E41E0020EC1E004E
:2006980020EC1E0020F41E0020F41E0020FC1E0020FC1E00200308090B0001640309080088
:2006B8000138090B0001181EDE510B93090C005162000003000000FF0014090500CC100009
:2006D8000008000000080A002009050004000008000000190880801B088080070880800655
:2006F800088080FE0907008B66090A000F6500000F650000901F0020901F0020981F00206B
:20071800981F0020A01F0020A01F0020A81F0020A81F0020B01F0020B01F0020B81F002089
:20073800B81F0020C01F0020C01F0020C81F0020C81F0020D01F0020D01F0020D81F002069
:20075800D81F0020E01F0020E01F00200904FF090C000C1D002009060009000000000000AA
:20077800000201020B0001020B00E41E0020021000F81F0020020400340100203401002028
:200798003C0100203C01002002000000000000000003030500200020F01F0020F41F0020D8
:2007B8000305004E0020000203050020010100005C150020030C00030000000000000000DC
:2007D8000002020800581D0020081E00200100000001020F00C41E0020C41E002002000001
:2007F800000000000000000000010105006CDC02010800BC1D0020030107004D600000973F
:200818006400000100000000000201021300D81D0020020400020000000000000000000026
:200838000001010400581D00200100000000000000010100199B000100000000000000004D
:2008580000010800000001000000000000000000000101040001000000000000000000006F
:2008780000010108000100000000000000000000000101080001000000000000000000004A
:20089800000101DC0001000000000000AD660000E965000018050000A81B00207807000081
:2008B80000010020A807000044010020D80700007801002000080000A4010020200800007E
:2008D800C801002038080000E4010020480800000802002058080000000200206808000066
:1C08F800EC01002078080000F001002088080000F80100209808000000000020DD
:201000003C000000000000000000000034100000000000000000000001000000000000004F
:1C10200000000000000000000000000001000000000000000800000000000000AB
:20103C003400000000000000000000006810000000000000000000000100000000000000E7
:14105C00010000000000000000000000080000000000000077
:2010700030000000000000000000000098100000040000000000000001000000FFFFFFFF87
:10109000FF00000001000000080000000000000048
:2010A0002C0000000000000000000000C4100000040000000000000001000000FFFFFFFF2F
:0C10C000FFFFFFFF080000000000000020
:2010CC0038140000E410000095A1011091A70110A1C2011009B2011041B80110A5BC011078
:0810EC0085BC01102F0000007B
:2010F400280000000000000000000000141100000000000000000000FFFFFFFF0000000093
:081114000800000000000000CB
:20111C00341400003011000065C2011069C101101BC2011091BA011005BC0110E5BB0110EA
:04113C002D00000082
:20114000341400005411000071C20110A5B6011099BF011045B60110B5BA011025BC01104B
:041160002E0000005D
:201164002400000000000000000000008011000000000000000000000000000008000000AE
:041184000000000067
:20118800240000000000000000000000A41100000000000000000000000000000800000066
:0411A8000000000043
:2011AC00240000000000000000000000C8110000000000000100000000000000080000001D
:0411CC00000000001F
:2011D00000000000901F00200400000000000000000000002000000070100000300000005C
:2011F0001C110000981F00200400000000000000000000000C000000301300001800000070
:2012100040110000A01F0020040000000000000000000000240000004813000018000000F3
:2012300000000000A81F002004000000000000000000000010000000A01000002C000000C7
:20125000CC100000B01F0020040000000000000000000000200000006411000024000000F6
:20127000FFFFFFFFB81F002004000000000000000000000028000000881100002400000082
:20129000FFFFFFFFC01F0020040000000000000000000000580000003C1000003400000067
:2012B000FFFFFFFFC81F00200400000000000000000000001000000060130000180000007C
:2012D000FFFFFFFFD01F00200400000000000000000000001C000000AC11000024000000F2
:2012F000FFFFFFFFD81F002004000000000000000000000038000000F41000002800000063
:20131000FFFFFFFFE01F002004000000000000000000000054000000001000003C000000FE
:1813300018000000000000000000000040130000080000000000000032
:1813480018000000000000000000000058130000080000000000000002
:18136000180000000000000000000000701300000800000000000000D2
:08137800010000001005000057
:041384000100000064
:0413880000000C0055
:04138C0000000D0050
:041390003700000022
:041394000100000054
:04139800341F0020DE
:04139C00000200004B
:0413A0000000000049
:0413A400FDC901106E
:0413A8000000000041
:0413AC00000000003D
:0413B0000800000031
:0413B4000000210014
:0413B800A01D002054
:0413BC00010000002C
:0413C0004C1F00209E
:0413C400080000001D
:0413C8000000000021
:0413CC00000000001D
:0413D0000000000019
:0413D400080000000D
:0413D8000000000011
:0413DC00000000000D
:0413E0000100000008
:0413E400081E0020BF
:0413E80006000000FB
:0413EC0001000000FC
:0413F0000C1D0020B0
:0413F40000000000F5
:0413F80000000000F1
:0413FC0000020000EB
:0414000000000000E8
:021406002800BC
:021408000100E1
:02140A002400BC
:02140C002D00B1
:02140E002E00AE
:021410002F00AB
:021412000100D7
:0114140001D6
:0814180003000000F0040000D5
:081420000000000000000000C4
:0414280000000100BF
:04142C0000000300B9
:0414300083C4011060
:041434003C14000064
:041438003C14000060
:04143C0000000000AC
:041440009000000018
:041444009000000014
:0414480000000000A0
:04144C004C1F002011
:04145000296500000A
:041454002000000074
:04145800C0040000CC
:04145C006C0400001C
:0414600009C30110AB
:04146400876200009B
:041468003B650000E0
:04146C0095C801100E
:0414700097C8011008
:041474000000000074
:04147800D20400009A
:04147C00B0030000B9
:04148000C80300009D
:0414840098030000C9
:0214880008005A
:02148A00090057
:02148C0001005D
:02148E0000005C
:01149000015A
:041494000000000054
:041498000000000050
:04149C00000000004C
:0414A0000000000048
:0414A400CD66000011
:0414A800555B000090
:0414AC006D5F000070
:0414B000BD5D00001E
:0414B400995C00003F
:0414B800ED5D0000E6
:0414BC005951000082
:0414C000F7650000CC
:0414C4004954000087
:0414C8000DC801103A
:0414CC001DC8011026
:0414D0000800000010
:0414D40024000000F0
:0414D80018000000F8
:0414DC0028000000E4
:0414E00020000000E8
:0414E4003C000000C8
:0414E8000C000000F4
:0414EC0034000000C8
:2014F0002DE9F04FD14D4FF00108ADF1140D05F141020490CC48C2F8CF8F0768002FFCD0FF
:20151000CB4844380290C0210160DB48011D0968890805D20168D94B090C41F0F0011970F1
:201530000021001FC2F8FF1FD54FD64CC6680190B00E12D2700E10D3802087F81B024FF6FA
:20155000D801A7F85C1287F80B0203F0BBFBA146D9F8D000C0F3042004E0A146D9F8000065
:20157000C0F3046005F031F800EB2670401C162805DA10F10A0FB8BF6FF0090000E015201E
:2015900000F01F0040F4F850A7F864022868800828BF46F04066BC49F00EB50E80F0010099
:2015B00000F00100086085F0010000F001008860304603F097FC00220446154605F020F8A3
:2015D00000B945462A46B14D2B68002BFCD0DFF8C4A20AF1080ACAF81040C5F800800AB16B
:2015F00005F014F804F0D8FDA949496880B24C680090A84840F2FF3200232C21A04704F05A
:20161000A5FF044604F0FCFF4FF0000B00B9C3462B68002BFCD0CAF81440BBF1000FC5F8B9
:20163000008001D004F0F2FF04F0A8FD044604F0E7FF4FF0000B00B9C3462B68002BFCD011
:20165000CAF80C40BBF1000FC5F8008001D004F0DDFF04F035FE044604F0D2FF4FF0000B53
:2016700000B9C3462B68002BFCD0CAF80840BBF1000FC5F8008001D004F0C8FF049803F0F1
:20169000FDFB044604F0BCFF4FF0000B00B9C3462B68002BFCD0CAF80440BBF1000FC5F835
:2016B000008001D004F0B2FF0499084604F0F0FD784C4000403440F0200084F809010846BC
:2016D00004F0F2FD40F0100084F80901084604F0C7FC039004F094FF4FF0000B00B9C34626
:2016F0002B68002BFCD00398CAF82000BBF1000FC5F8008001D004F089FF0499084604F0AF
:20171000EBFD400040F0600084F80C01084604F0EFFDC00040F0800084F80101084604F01A
:20173000F3FD800040F47C40A4F89C01084604F0D9FB039004F064FF4FF0000B00B9C346F4
:201750002B68002BFCD00398CAF80000BBF1000FC5F8008001D004F059FF4FF48000C6F301
:2017700081452060681E02D0401E28D024E0D9F8D400810C20D24FF480412160D7F80210D7
:20179000420AC0F3033502F0800221F08F010A4345EA0201C7F80210D7F80120031263F342
:2017B0000302C7F80120396800F0E70521F0E70145EA0100386002E04FF0004020604FF4D2
:2017D0000070206404F0BAFE40F0300084F8C800C6F3815070B3401E03D0401E1FD0022167
:2017F0001EE0404604F012FB05460420294603F0DDFC042004F00AFB8542FAD101980568F5
:2018100025F07F4004F08AFA21484069036807214FF06022280E98474FF48060206003212A
:20183000042003F0C3FC0CE0940222430000094044600C400420414603F0B8FC164804F0FE
:201850006DFAD9F8B4001549154E47F6180700F03F0084F8CB0F0E4D0F8030682868C168AF
:2018700002208847402102980E4C016005B0C4F80080BDE8F08FC046AC3F0050566208405B
:201890000A600840B81200500000204300800C40A001001000A00C40BD37860070B00C40BA
:2018B0002C200940940460422DE9FE4FB94C0F460646F80B80F02081B80880F0BA80DFF8EB
:2018D00084B2DFF890A2DFF89882DFF89C92B80F6DD29B480678002E4DD138094DD39B49CB
:2018F000994A58460024012504700E78157016B1204604F0F5FB964804F07CFE96492246EA
:20191000504604F0CEFE9548DFF868A2017801291DD141460E78D6B9924D286888B104F0DA
:20193000D3FD4A469249914E13682D680A68C01A000B82183060B2EBC51F28BF0C6007D23F
:201950000A608E484FF0005104F07AFD2CE005705046448040F609010180417B01F0F00102
:2019700041F001014173017B01F0F00101734460814E306018E0390914D2B80BC0F0D980AF
:201990002046001D04F096FE061C08D0706830B17468F068B6F9101082A20CCAA04727F47A
:2019B0000057C6E00021017027F00807C1E074495046002204F075FEF06840F6C4118142BF
:2019D00018D1042004F022FAA0B14D46286888B16C4C206870B904F077FD29682060814288
:2019F00026BF401A401E401A000BF060F06800F58D70F0604446207858B10220ADF80000F9
:201A1000684604F03DFB00215F4E2170BDF8080030805E495E4B58460124002204700878E7
:201A30001A70401C0870192004F0B8FD27F000577FE004F10C0A504604F03CFE061C52D076
:201A500004F0B8F87368326A00253562DBB196F8243042F002024FF0000990465B1E07D08D
:201A70005B1E03D09B1E06D150A002E051A000E052A090E800037268F068B6F910104B46D8
:201A900094464246E047B4F91200401C6FF31F306082504604F068FCF068B0F98C10B4F9C7
:201AB000122091421FD13C49097801291BD090F88E409CB904688CB1384909680968B1F1AD
:201AD000FF3F10D0364909686830B4FBF1F104F0A7FEF068683004F09FFE04E080F88E506B
:201AF000284603F0CDFA504604F0E4FD27F0020708B147F002071CE004F08AFE0146204605
:201B1000083004F0D7FD0646346A084604F07CFEA0080CD25EB17068316AA143316230B1AF
:201B30007568F068B6F9101000232246A84727F480471FB11148394604F082FCBDE8FE8FE9
:201B50009C1B0020981B0020061B00209E1B00207D4B0000B81A0020E15F00009A1B0020E2
:201B7000051B00206C1B0020701B0020781B0020681B00201C1B0020001004403C1900204D
:201B900011320000741B0020101A00209F1B0020071B0020081B0020FC1F00207C1B0020A8
:201BB000080500000000000020000000000000000000001000000000000000400000000098
:201BD000000000202DE9F84F82468548DFF8049235380068800880F0ED8004F06FF9064694
:201BF00083480830D0F8008000254FEA2874641C5FEA98500AD2C6F13E0016F10A0F4FEAB5
:201C1000E000D8BF08208442B8BF041C6E485FEA98610FD25FEA58610CD38346DBF8000062
:201C3000C0F3042004F0D1FC0746DBF80000C0F304600CE083465BF8D00CC0F3046004F0D6
:201C5000C4FC0746ABF513700068C0F3044004F0BCFCE7198346162F05DA17F10A0FB8BFB4
:201C70006FF0090700E01527584A594807F01F0141F4F8511180006810F0030F18BF0125E9
:201C9000C00828BF45F00205BAF1000F18BF45F00405494691F90700301A052804DA887904
:201CB000A84208BF888864D0DFF82CC10F2EA6F10F0225DB02EB02124FEA222EBEF1070F27
:201CD00088BF4FF0070E7446062C88BF06245CF82400042303EB84036446E3581B1A03F0DB
:201CF000FF04E80824BFC3F307200444A80824BFC3F307400444680828BF04EB136401E063
:201D10000024A6465CF82EC0E8080CF0FF0324BFCCF307200344A80824BFCCF30740034483
:201D3000680828BF03EB1C63A2EB0E22A4B25443BBEB070004F1800403EB1423D8BF012022
:201D500008F0FF07342242437A43B2FBF3F04FF6FF72824238BF101C802E80B2888005DAE9
:201D700016F1800FB8BF6FF07F0600E07F26CE718D711A4A12681F280A604FF0000208D3F5
:201D900040F2FF11814206D24008521C8142FBD301E01F208880134F11490F38000942EAAF
:201DB000C00247EA0200C1F8FB0F0026C1F8FF6FBDE8F88F0D4F0C4E494608203760891D38
:201DD0000870BDE8F88FC046881300506E62084024220840581B00209C13005008200940B5
:201DF0003500094000E7A48030100940FDFDA400AC3F00502DE9F04F0128ADF1140D40F07B
:201E1000F280DFF81492D9F8DC00012840F0E9800220C9F8DC0004F0F3FC0290012003F00C
:201E3000B9FD20B101210646C9F8DC10D5E004F0E3FC03906E484FF00008C0F8008001207F
:201E500003F0E4FF012818BFCDF8008004D1404603F0A4FB0120009066486E4CC0F8008019
:201E70001934D4F8FF0F112004F0DCFB00280CBF46460126102004F0D5FB08B146F002069E
:201E90000F2004F0CFFB08B146F004060B2004F0C9FB30B1584800685849006B024608889C
:201EB00090470A2004F0BEFB0028404618BF01204FF0805B0BF5DC7528B128685049006BE6
:201ED0000246088890474F480127076028688069014646F0200088474B48076004F09CFBB3
:201EF00000F001010191400815D2484804F066FB8246BAF1040FF8D0BAF1010F06D1DBF887
:201F1000D801406802464148032190474049086820F0030008604046FFF754FE2868D4F8C6
:201F3000FF1F806B8047019801280ED0BAF1010F06D1DBF8D8014068024634483946904721
:201F50003349086840F0030008602A480760286840690146304688470B2004F063FB28B1F6
:201F700028682649C06A0246088890470A2004F059FB28B128682249C06A0246088890475A
:201F9000204807600322C9F8DC201F4BC3F800802868406B0146304688470128F8D10420FE
:201FB00003F0F8FC124807601A48D4F8FF1F01688909FCD30098012802D1384603F0EEFA66
:201FD00004F024FB082003F0E5FC06460398C9F8DC7004F00DFC03F0A5F9029804F004FCD2
:201FF00002E0042600E00126304605B0BDE8F08F0C40094000022243B80100107A0300002D
:20201000760300002820086080010443004003402422084014100940A81B00202DE9F84F01
:202030007C4C204604F046FB15460E46009004F0EFFB05F0010780463046B0F1FF3F0DD11A
:20205000606820B9B4F91200401C00B202E06068B0F910007049002209310A706F4E626889
:20207000811000EB517121F00701083E401AC10001EB40117618B24200F086800098DFF874
:2020900074B1864248D000284FF003073ED04FF00009CA46006886421FD1584604F040F86A
:2020B00000980168C0F800A00091404604F0ACFBA8080FD2009991F8240040F0040081F881
:2020D0002400684604F050F9014604F10C0003F0C1FD01E04FF001098327B9F1010F03D087
:2020F0000098006800900EE0009991F8240040F0040081F82400684604F036F9014604F12E
:202110000C0003F0A7FD00980028C3D1832F23D0404604F079FB1FE0584604F001F8A808EB
:202130003ABF2068006800202060404604F06CFB0C34009991F8240040F0040081F82400CE
:20215000684604F011F90146204603F083FD009808B1A808EDD283272748294A007870B9B6
:20217000264804F047FA0221104604F069F92548007801283BD0244804F03CFA37E01046C1
:20219000022104F05DF932E0A80803D3206800900023236096F824100120B840084386F8C8
:2021B000240004F029FB002F064614BF1748184803F066FF404604F027FBA80813D30098A4
:2021D00088B10C34014691F8240040F0040081F82400684604F0C8F80146204603F03AFD78
:2021F00000980028EED1304604F002FB83273846BDE8F88FD4190020071B0020B918000075
:202210003C190020981B0020D13B00000100020401000104081B0020101A0020101300207D
:202230002DE9F0411C4615468C4208BF854282BF00230022E5E0002C08BF002D0AD10029BF
:202250000EBF00286FF000006FF0000100F0E1F8BDE8F0815FF000085FF0000E002C08BF34
:202270008D429CBF2C1C0025070C47EA01470E0CB44208BFBD429EBF5FEA044444EA1544E0
:202290005FEA0545070A47EA01670E0AB44208BFBD429EBF5FEA042444EA15645FEA052535
:2022B000470847EAC1774E08B44208BFBD4200F29380870847EA81778E08B44208BFBD4235
:2022D0007CD8C70847EA4177CE08B44208BFBD4266D8070947EA01770E09B44208BFBD4286
:2022F00050D8470947EAC1674E09B44208BFBD423AD8870947EA81678E09B44208BFBD42DC
:2023100024D8C70947EA4167CE09B44208BFBD420DD8E60146EA5566EF01B14208BFB8421A
:2023300001D3C01BB14158EB08085EEB0E0EA60146EA95664FEA8517B14208BFB84201D305
:20235000C01BB14158EB08084EEB0E0E660146EAD5666F01B14208BFB84201D3C01BB14161
:2023700058EB08084EEB0E0E260146EA15762F01B14208BFB84201D3C01BB14158EB0808EB
:202390005EEB0E0EE60046EA5576EF00B14208BFB84201D3C01BB14158EB08084EEB0E0EFB
:2023B000A60046EA9576AF00B14208BFB84201D3C01BB14158EB08084EEB0E0E660046EAEA
:2023D000D5766F00B14208BFB84201D3C01BB14158EB08085EEB0E0EA14208BFA84201D3BE
:2023F000401BA14158EB08085EEB0E0EA34208BFAA423EBF2D0A45EA0465240A89D3734631
:2024100042461E4617460B46024631463846BDE8F08170472DE9F843814604F0F1F80021F2
:2024300000B90121724E30680028FCD0734D01242D1DEF6A346009B104F0E8F8DFF8B481AF
:20245000C7F3072008F1BC01086004F0D9F8002100B9214630680028FCD02F68346009B1F6
:2024700004F0D4F8C7F38440C8F8C00004F0C8F80146002001B92046014630680028FCD080
:20249000ED69346009B104F0C1F8C5F38120C8F8D000B9F5C061C8F8B81000F0A48098F8F7
:2024B000D80068B9C8F8D410D8F8C000C8F8C800D8F8BC70C8F8C470D8F8D060C8F8CC607B
:2024D000D8F8D410D8F8BC60002954BF02206FF00100454605F1C8031A6801EB410140183A
:2024F000411000EB917002EBA0021A60D5F8C810C5F8C46000291CDD1E293DDDD5F8CC00E4
:2025100030B93429B4BF15391E21C5F8C81025E02A29BABFD5F8C8000B381E20C5F8C80064
:20253000D5F8C4003F28B4BF401C3F20C5F8C4001FE0D5F8CC00032812D011F10B0FC6BF9E
:20255000D5F8C8000B30201CC5F8C800D5F8C4000028CCBF401E0020C5F8C400032009E08B
:2025700011F1150FC6BFD5F8C8001530201CC5F8C8000020C5F8CC004FF08058D8F8A401D0
:20259000B5F8C4101C4E40684FF47F4208230746009130463021B847D8F8A4014068042183
:2025B0004FF400321123074600943046B847D8F8A401B5F8C81040684FF4F80212230446AE
:2025D000009130460421A047D8F8A401B5F8CC1040684FF440620A2304460091202130468E
:2025F000A047BDE8F883002088F8D800BDE8F88300800C40A81B002000A00C4000A00C40A5
:202610002DE9F04F8346ADF1840D00F0D1FC03F031F90026012804D103F02EFE022808BF4F
:2026300001265F490868C0F38150012805D151F80C1C0120090E884006435A495A485B4C22
:2026500009780068C0F34600206003F013F9A046012809D103F010FE022805D1D8F800004F
:20267000401CC8F8000001E0D8F80000DFF840A130B15246FF2107467F1E02F8011BFBD160
:20269000DBF80020002702F0FF01FE2919D094465146DE463B4601250CF0FF02904203D927
:2026B00005FA02F4264201D0022076E00CF0FF025EF804CF8B5427435B1C0CF0FF02FE2A59
:2026D000ECD1092001F04AF94248002124220823C0F800B001A804F083F84FF0010901AA40
:2026F0003D488DF81C90494604F076F8D8F8003023B33A4C0025AA4609FA05F0064217D18A
:20271000074204BF05F0FF0141F4C04103D02848405D5BF82010274801F02CFCE8B24FF0AE
:20273000FF3103F047FDD8F80030C4F800A001E0042020606D1C241D9D42DDD30AA8002115
:202750003022082304F044F81B4D1D4A2878002410210AAB12901948009404F035F816A8CD
:2027700028220823214604F02BF8686816AA16491C9014481D94234604F01EF8134A52F894
:202790000D0C494620F4F85040F4005042F80D0C0F4BC2F8FF1F2046196021B0BDE8F08F48
:2027B000B43F00509D1B002080120840641B0020601A0020007FC767FC040000801A002074
:2027D000E161000008190020155900000D30094008000940841B00209C1A0020C81600208E
:2027F0002DE9FC471E4692460D46814604F010F8624C0AAF40F6F871B4F91230B4F910204C
:202810000095D21A1140082902DB03F0FDFF3FE0B4F91010491C6FF31F312182B4F91080F6
:2028300003F0F2FF564D4046811000EB517121F00701401AC10001EB401109F168006D18E5
:2028500003F06EFC85F812A06E60C5F80C90A5F810800098A86097E80C0057A696E80300DF
:202870000026104085F82460226805F11807194087E80300002A65D12046294603F0EAF95C
:2028900048B9B4F9100000F6FF706FF31F3020826FF001086EE0A9F88C8003F0B9FF89F823
:2028B0008E6084464148DFF8DC90077867B149460F784FB1344F0121344B06703C4A39700E
:2028D00019781670491C1970604603F09DFF606800284FD14946087800282FD12C4800787B
:2028F000012847D003F094FF06462A480078F0B9A86802F07DFE294B2E4A27491B6812684D
:20291000086038B9304603F07FFF2548042103F097FD2FE0D0680968224C091AB1FBF3F175
:20293000204603F07DFF204603F076FF1FE0304603F06AFF1C49012008701BE0192003F0EE
:202950002DFE17E003F064FF06462946204603F081F9002818BFA9F88C8008D1B4F910001F
:202970006FF0010800F6FF706FF31F302082304603F04AFF4046BDE8FC87C046081B00207E
:2029900008130020981B00209C1B00209F1B0020071B0020061B00206C1B00200805000031
:2029B0003C190020D4190020991B00209B1B0020051B00207C1B0020F1EFFF9F2000000046
:2029D0002DE9FC41634C5C4D5C4EDFF87881604F94F8E410481E0B2800F2AC80DFE800F025
:2029F0007C2C43062343062343067765042907D001220A2945F8212C14BF0220032004E042
:202A10002021012045F8211C024684F8E200002045F8390C0827C5F8FF7FC5F8F37F45F8AC
:202A3000392CBDE8FC81052914BF09200620002584F8E400356079E094F8E1700120383DC9
:202A5000002FC5F81B0004BF0620002102D00021F160032084F8E400032045F8010C316090
:202A70003068800862D294F8E4103548012503290FD000684068002160220523074600910B
:202A90004046B84794F8E400062814BF0A200720CEE700684068022160220523074600916F
:202AB00040460021B8470420C2E72749002627480E60012505600E2000F0E6FE022003F07E
:202AD000FDF884F8E45084F8E360BDE8FC81002038600C25786027E04FF08056D6F8A00114
:202AF00000680146202088472C3D0F2045F8010C41F61D53C5F80330D6F8A4014068002153
:202B10004FF4C07202250723844640460095E047D6F8A401C06800214FF4C072072306462C
:202B30004046B0470120386084F8E45004F1780003F072FEBDE8FC8139400C4038600C4004
:202B5000A401001000A00C402C500C4004800C4034600C40A81B002000B5ADF1340D039141
:202B700002905148059006A803F000FD4F492020087050484E4908604F484F49007820F049
:202B90000F0040F0020008704B49087840F0800008704A4900200860494800684FF0FF31AD
:202BB00003F006FE474800681921012202F074FF444800681B21012202F06EFF41480068B2
:202BD0000721012202F068FF3E4800680621012202F062FF3D483E493E4A06AB01F0B0F8D8
:202BF00039490860002000218DE8030036483A49006801220023FFF7F3FD02F0A7F9049067
:202C100036492C48202201F0F9FB04993448401804902A4904980860002000218DE8030055
:202C30002948304900680122002302F08FFE0AAA82E803000AA890E80C0002210020114082
:202C50001840002800D1002900D1FEE71D4800681921002202F020FF1A4800681B210022D2
:202C700002F01AFF174800680721012202F014FF144800680721002202F00EFF1148006854
:202C90000621012202F008FF0E4800680621002202F002FF0C48006800F0BCFB12480068C2
:202CB00003F082FD78E7C046A08601002B1F0020301F0020401A0020281F0020241F0020E9
:202CD000901B0020F01A0020F81A002038160020781F0020381E0020041F0020A41E0020FD
:202CF00080841E001C1F00208C1B00202DE9F0438046D8F80460D8F808700C46ADF1340DC4
:202D100003F086FD3178012903D103F07DFD0020A3E04FF0010986F8009003F075FD207822
:202D300070706078B07060687060A068B060E068F06020693061207D3075607D7075A07D28
:202D5000B075A069B061207F3077607F00257077A07F35623563102186F83C10B0772C4611
:202D700074627463B462B46386F82C4086F82D4086F83D40786800F0F1FD404600F0BCFEAB
:202D9000404601F0B1FC78B935480068C068014638688847786800F077FD03F039FD3470FA
:202DB00003F032FDA04657E001A821463022082303F00EFDCDF818803A7B09920095294A84
:202DD000B96806F1680001AB03F0FEFC01A828220823214603F0F4FC396907912249CDF8F8
:202DF000148006F1840001AA234603F0E5FC01A824220823214603F0F3FCB0788DF81C9010
:202E100038B906F1B800214601AA03F0E5FC17483061707838B906F1D400214601AA03F083
:202E3000DBFC1348F06001A821462422082303F0B7FC0694ADF8144006F1F0000D49CDF844
:202E50001C800A2201AB03F0A7FC0B4A06F154000421434603F05AF840460DB0BDE8F0836A
:202E7000D00100101D350000ED5700009366000083660000D5450000BD65000070B5ADF1EA
:202E9000380D00F095F8354908682822082340F00200086001A8002103F092FC304EB07872
:202EB000314907902F48002301AA03F085FC00213022082301A803F08BFC00251921307870
:202ED0002B4AADF81C5001AB09902848009503F07BFC2822082301A8294603F071FCF07853
:202EF00025490790234801AA2B4603F065FC3022082301A8294603F06BFC01241A217078AB
:202F10001F4AADF81C4001AB09901C48009503F05BFC1C481C492A46134603F03DFC1B488E
:202F300003F068FB02F0A6FC2946012808BF211C1A4E184835704FF6FF720283144B19706B
:202F500080F82150144E3470174A1570144B1D7014490D70154E35700EB070BD002009406A
:202F7000040500003C19002021640000B81A0020E15F0000701900203D400000D41A0020D8
:202F9000A9560000D419002019620000D13B00009E1B0020F8190020051B00209A1B00206F
:202FB000071B0020061B00209B1B00209C1B00202DE9F043474C94F8E700ADF12C0D002883
:202FD00074D13C4F387B01250021242284F8E750082384F8E60001A803F0E2FB002604F1FD
:202FF0000C00069601ABADF8146033490796324603F0D2FB314904F1300001AB324603F04D
:20301000CBFB2F4904F1540001AB324603F0C4FBB868014628468847DFF8AC8029487B7B35
:203030000078D8F80410C1F381571BB1032F03D184F8E150032F1ED0022F1CD0012F2ED1AD
:203050004FF08059D9F8A401204C406803214FF040521C230746009131462046B847D9F8FF
:20307000A401406831464FF400720923074600952046B84713E0022002F038FE032F0CBF1A
:203090004FF47A7142F21071114800685434B1FBF0F1204603F0C4FB204603F0BDFBD8F86E
:2030B0000000C00802D2304602F020FE0BB0BDE8F083C046D40400009F4900006946000096
:2030D000114800009D1B0020B03F005000A00C4008050000A81B00202DE9F0430446404879
:2030F0000578ADF1140D880F77D3414E3D4800271C36376046F81C0C15B1012002F0F0FF51
:203110003C4803F077FA3C4AA568B94640F60A015780537B6F8090461180107BC2F8049010
:2031300003F0F00300F0F000107343F00103537300E01D466B6813B118888142F9D1C5F875
:203150000480687B00F0F0006873274803F0B2FA80680088C91F81421ED0491C81421BD013
:20317000238BDBB194F82410678394F82500C4F81C9001F0F00100F0F00084F8241040F0A0
:20319000010084F8250004F11803C8F80430507B00F0F000507301E018480760A0686946AC
:2031B00000F008FB684603F0D9F9A06800F096FA30680028FCD03760012002F027FE01288D
:2031D00008D0687B00F0F00040F001006873074803F010FAA06846F81C0C05B0BDE8F083B1
:2031F0009E1B002001010E04081B00205556000000100440B91800001C1B0020701B0020BD
:203210002DE9F04103F098F83F4D3E4EDFF8FC800446A00820D330464168E9B10022426007
:203230000B6A8A698F6922401A4342F0020205F108030A621A68BA4301F118071A6097E833
:203250000C002A680C301B1C9A432A6002F002FD4046022103F0F4F87068A10815D200F114
:20327000180191E80C00002702EA04013B40002B08BF002909D0016A1440B0600C43046295
:203290004FF48041404603F0DBF87068002837D1304603F00FFA071C32D01E48F968006800
:2032B000884228D1B86802F0A3F919490860E8B905F10801B8690A68104308602B6807F14A
:2032D000180494E80300081C1843286000222A61B86845F80C0C05F1100000680028FAD0BA
:2032F000304603F041F87760BDE8F081086801F0C7FEBDE8F08140464FF4805103F0A0F8CE
:20331000BDE8F081081B00200C1004403C1900206C1B00207C1B00202DE9F04707467D6892
:20333000D7F8089090460C4603F072FAAE6A8246002E64D105F1F00002F0F2FE2C620024D2
:20335000EC7750466C6203F05FFA03F061FA2F4E3378824623B9022002F0C8FC0120307097
:20337000504603F051FA2A4A1068414640F480701060384602F002FCA862C0B9384641466C
:2033900002F0DCF9A878D0B9A96805F1B80003F00FFAE8B9AC621020E8774946284601F0C6
:2033B0001FFC03F035FA8246307840B323E0D9F80010886B40F020008863A87810B1204604
:2033D000BDE8F087A96805F1B80003F0F1F910B1686ABDE8F0873846414602F0AFF91020A7
:2033F000AC624946E877284601F0FAFB03F010FA8246307818B1022002F060FC347050468D
:2034100003F002FA4FF0FF30BDE8F087A21B002030100040F8B5304D07462878002859D05E
:203430002E49B1F91200B1F91010884206D0B7F98C1034A20CCA384600F0E0FC03F0E8F9C9
:20345000274A2E4E1178002935D0491EC9B20029117030D103F0D8F92248002400782C70C5
:2034700040B1204601F00CFE07F130004FF0FF3103F09EF907F1300003F08AF907F16800CB
:2034900003F082F9184803F07BF9184803F074F9174803F075F9174803F06EF9164803F05D
:2034B00073F9174834603D7C0470012D12D10E2000F0EAF9F8BD03F0A7F93068874204BFF2
:2034D0000020306007F1300003F062F907F1680003F05AF9F8BDC046FD1F0020081B0020D6
:2034F000A01B0020981B00203C190020B81A002070190020D41A0020D41900207C1B00202C
:20351000FC1F002002000000000000702DE9F8430746D7F80880D8F800007D68066C16F4C8
:20353000F06F466426D1F00910D2700952D395F83C00AC6B401E844288BF041C38462146B2
:2035500002F0E4FAA86B001BA86308E0A96B384602F0DCFA014695F82D00A96318B9A86B1F
:20357000002837D101E00020A86305F1840003F0FFF82FE0F00A0ED3D8F800000021446814
:203590004160A96B04F00F04202988BF2021384602F0BCFA1AE04FF000094C4602E0A86B9F
:2035B000401EA863A86B88B13846012102F0AEFAD8F80000446814F00F04C0F80490EED06F
:2035D000296B686B491E2963401E6863EC77384601F0B0FBB0090DD3AE6A5EB13846314626
:2035F00002F0CCFAA862A86A314618B93846091D02F0A4F8BDE8F88300B5ADF11C0D03913D
:20361000029004A802F0B2FF22200090254924485A22022300F00AFA00B1FEE7204822490F
:2036300008602249087840F0010008701F49087840F0020008701E49202008701D490878E7
:2036500040F0020008701B49087840F004000870194800684FF0FF3103F0AAF81848194991
:20367000194A04AB00F06CFB14490860002000218DE8030011481549006801220023FFF7F8
:20369000AFF84FF4000000218DE80300124B0B48104900680122FFF7A3F80D490880D7E7D6
:2036B000501B0020441700207C1E00206F1E0020741E00206E1E00208C1B0020F81A002036
:2036D00038160020781F0020381E0020041F0020FC1A0020601E002071430000E0B5018856
:2036F0000025A1F6020159B143F20402891A04D0491E57D190F8246000E00226C76901E08B
:20371000C67B4769002F4DD03F1F052044F2380357F8041F0A04120C934203D0401EF7D1FC
:203730003F1D01E0C1F30345002D3BD01F4B3046401F18D01C4A401E10D0001F0CD0801EA4
:203750000DD0C01E06D00F3819BF1A1C6032184A443204E0121D02E0121F00E0083A106849
:20377000C0F3834003E01A461068C0F303200F2806D0A84216D921F4702141EA004110E04A
:20379000761F0AD0761F08D0761F06D00F3E1CBF21F4702141F4802103D121F4002141F4EF
:2037B000E0213960E0BDC0460011005020130050C410005080B50288A2F602073FB143F22F
:2037D0000502BF1A14BF002090F8240000E0C07B2C4AD2F88832401F0B6048D0401E3CD0F9
:2037F000001F30D0801E24D0C01E18D00F380CD0D2F890024860D2F894028860D2F8BC024B
:2038100020F0784040F080503AE050694860D06A8860506C20F0784040F0704030E0106946
:203830004860906A8860106C20F0784040F0F04026E0D0684860506A8860D06B20F07840BF
:2038500040F0C0401CE090684860106A8860906B20F0784040F0A04012E050684860D069CC
:203870008860506B20F0784040F0405008E01068486090698860106B20F0784040F0205041
:20389000C86080BDC41000502DE9F843044602F0BFFF81462D48021992F8ED10491ECFB27E
:2038B000002F82F8ED704BD12B4D05EB84052E78698836F07F0788461AD1F10911D24FF0CD
:2038D0008054D4F8B801806901464046884704F5DC742068406B0146404688470228F8D1EF
:2038F00021E000EB8800D0F80011002088471AE04FF08054D4F8B801006A014640468847E4
:20391000D4F8B801806A014640468847D4F8B801006B01464046884701210D4A0D481160C1
:2039300001688908FCD306F03F003F2801D0FFF7ABFF687800F03F003F2801D0FFF7A4FFC1
:20395000484602F061FFBDE8F883C046A81B002028200860282008404C0300002DE9F04198
:20397000064602F055FF2D4D8046A91991F8ED00421C002881F8ED204AD1294C04EB860418
:20399000277807F03F003F2801D0FFF7E7FF607800F03F003F2801D0FFF7E0FF668837F005
:2039B0007F001AD1F80911D24FF08054D4F8B801406901463046884704F5DC742068406B60
:2039D0000146304688470128F8D121E005EB8605D5F80011012088471AE04FF08054D4F836
:2039F000B801C069014630468847D4F8B801406A014630468847D4F8B801C06A0146304622
:203A100088470121074A0848116001688908FCD3404602F0F9FEBDE8F081C046A81B00205C
:203A30004C030000282008602820084080B502AFADF1180D8DF80A30ADF808200191009090
:203A500038889DF80A20BDF808100B305043884201DD01204CE038880830411000EB917111
:203A700021F00301401AC0F104008DF80B0001980390002004909DF80A00049988422ADD95
:203A900039889DF80B00049B019A4018083000FB032001900198002101710199487920F0A5
:203AB000030048710199487920F00C00487138880199C88038889DF80B10019B019AC018E9
:203AD0000918083111600498401C04909DF80A0004998842D4DC03980199086003980099F8
:203AF0000860009800214160024903980860002006B080BD881B00202B4AF0B538CAADF116
:203B10001C0D02A938C10CCA4FF0805681E80C0084684568D6F8D0112068C968884721680F
:203B300022488A6B10408863206840F2F271416495F83C0095F83D202168C0100DEB800095
:203B5000806810434863684602F00EFE1A4FDFF864E0D6F8D0112B7FDFF854C06A7FA87FEB
:203B7000496857F823705EF82260AA695CF820300D46206801993E433343A8470F490A1F37
:203B9000106840F010001060086840F001000860A07DFF2806D0E07DFF2803D0086840F4CF
:203BB0004040086007B0F0BD0C0400000DF8FFFFF8030000F0030000E00300003010004045
:203BD000042998B547D1244802F074FD234C48B92B48411D0978490838BF206804D31C38B7
:203BF000406800E0C068206042681D4912780A6040680968007888422CD1022002F076F8A7
:203C10001120FFF7ABFE01222168164B087C1A7018B115480078012803D00E20FFF79EFE4F
:203C30002168496811488F680FB9CF681FB10021C1610F4F07600F4A40F2FF711160002780
:203C500087610D4941610D4802F0D4FC192002F087FD98BDFEE798BD081B00207C1B002025
:203C7000D0210840071B00209A1B002000100440510007060000046002000040ED5300004C
:203C9000141A0020F8B502F0BBFC02F0C5FC044604F00C000C2845D0E0081ED202F0F8F870
:203CB000234E376805460120014602F058FA31686943884211D21F4C8220B0FBF7F0291A19
:203CD000204602F0ADFD204602F0A6FD0120FEF791F8204602F024FA25E0200922D2164842
:203CF000610939BF016821F00101016841F0010102460160D2F898004FF0805440F00300E9
:203D1000C2F89800D4F8B8018069014620208847D4F8B801094C806B2168804701202060C7
:203D3000206800E030BF02F071FC01F043F9F8BD08050000B41B00208C2108402C20094055
:203D50002DE9F041DFF8A880044698F800001F4615460E46ADF1300D012804D0FFF78EF8CB
:203D70004046012101704EB166603DB1A56002F04FFD204A117819B102F046FD002033E0FF
:203D9000491CC9B2117002F03FFD01251FB9684602F0ECFB6F46386820607868E060397A57
:203DB000782204F118002174002100F0B7FD03A800212422082302F013FD04F130008DF809
:203DD0002450002103AA02F007FD03A800212422082302F0E5FC04F168000749099400221F
:203DF00003AB02F0D9FC20460CB0BDE8F081C046FD1F0020A01B0020A76600002DE9F04195
:203E10001F4616468846054602F0F6FCDFF89CC0BCF9104041463B463246641A04D4BCF911
:203E300012408C4204DA0CE0BCF912408C4205DABCF91240BCF91060B44202DC02F0D8FC0E
:203E50002FE01B4C8E1001EB567626F00706891BCE0006EB4116A41994F8241011F0070F15
:203E700018D114496668B14202D066686160AE6505F1500181E80C0002F0BAFC05F130002D
:203E90004FF0FF3102F094FC05F1600797E80300BDE8F08102F0ACFC94F8240010F0070FCC
:203EB000FAD102200021BDE8F081C046081B0020081300209D5700002DE9F0414568876873
:203ED00016460C4602F0A4FC0346A86B3246214630B1184602F098FC4FF0FF30BDE8F0810E
:203EF000AA6329630024EC7718466C6302F08CFC02F08EFC1D4E8046307820B9022001F0AA
:203F1000F5FE01203070404602F07EFC1849086840F4007008603968886B40F4FA60886301
:203F30006878002818BF201C1ED1696805F1D40002F03EFCB8B9AC633968886B20F4FA601E
:203F5000886302F065FC0746307818B1022001F0B5FE3470384602F057FC1022696B286B8F
:203F7000EA77401A2863686BBDE8F081A11B002030100040F8B50D46EEB2290824BF274982
:203F90004D40274BB400DFF89CC0195900EA05020CEA020200F4E02C85EA0107BCF5E02F97
:203FB00000EA070721EA0001C7F3006742EA010201D1510E14D300F4E0210F4310D002F468
:203FD000E027B7F5A02707D0B7F5803704BF22F4003242F4A02203E022F4803242F4C02257
:203FF0001A51114CC10D04D3C5F38052A4F1D0018A55000E10D302F00BFC290E03D201225C
:204010000021B24002E00122B2401146236893431943216002F0F8FBF8BDC046006000A051
:2040300000100840007F077FD0200240F8B502F0EFFB234C0746E06910F4602F24D0400C80
:20405000C6B2700807D2B00803D2F00828BF022602E0012600E00026751D68B201F072FADB
:20407000E16906F111020120904081433846E16102F0CAFB04EB8600876847B1606812A2D8
:204090000CCA2946B84702E0384602F0BDFBE06918B10C48002102F0D3F994F82100800848
:2040B0000DD367692FB1606809A20CCA6FF00101B84794F8210000F0FD0084F82100F8BDCB
:2040D000F8190020701900200000000000000008000000000000008000B5ADF13C0D1F486B
:2040F00002F03AFBFEF764FF1D48FEF789FA10B114A002F02DFB01F0EDFC684602F0CEF984
:204110004FF44070089017480790184916486A46002302F019FB1748174900F009FA144967
:2041300008601348006800F06FFC1148006800F0A7FC1248006802F037FB02F001FB0020A1
:204150000FB000BD4572726F7220776974682050494E5F696E69740A00C046C0A419002026
:2041700000030000080E0020F0170020D1420000601B0020441B0020641F00208C1B002038
:20419000F0B520480127F84201D001F04DFB204D204F214EBD4206D203CD0478A4003459F7
:2041B000401CA047F6E71D48002800D08047164D164FBD4202D210CDA047FAE7F0BD032596
:2041D0001BE0416808300A1C2A400BD11A1C2A40AB4305D0046804300C600431043BF9D1DA
:2041F000131C05D0047801300C700131013BF9D1021C2A4001D0A84304300368002BE0D18B
:204210007047C046FFFFFFFF0000000000000000AC08000014090000A408000055C501102D
:204230001B4838B50468B4F1FF3F08BF002402F01FF90025174818490560012008601749A7
:20425000086001F053FA1648006820B1154800682046FDF745F9144814490560144C0A68C4
:204270006FF35B4244EA0200086012490868C0F30130012806D10A680F48104040F4003269
:204290000A6008600D4908680028FCD138BDC0461C130050840460425C600C400822044364
:2042B00080012843000120438C210840482003400000390104000940FFFFFCFC0C006842CB
:2042D00000B5ADF12C0D0191009002A802F064F800208DF81E0000208DF81D0000208DF8FE
:2042F0001C0000208DF81F004FF416500890002002A901F02BFD164908601548006810B954
:204310000DA002F025FA124812490068202202F0A6F9002801DD02F057F80F4800780028A1
:20433000F1D00B480D490068202202F09DF90A4900200870E7E7C0464572726F72206F7009
:20435000656E696E6720746865205541525400C0941B0020A41E0020FE1F0020841E00200F
:204370001FB5ADF80410009002AC84E80C0002A890E80C004FF40001002011401840002887
:2043900000D100292CD01B2002F0A8F80022002100B1012101B90122124800681B2101F068
:2043B0007BFB02F045F9104908600F4800680F49007A08700C480E490068093008600B4876
:2043D0000B49027809680B48521C00F017F80A480849202200F012F800F084FE01F070FE1E
:2043F00000901FBDF01A0020F41A0020041B0020001B00201C1A0020841E0020002A4AD013
:204410005FEA000C8B071CD1830722D1102A08D370B4103A78C978C0103AFBD270BC1032BA
:2044300038D0042A2CD3082A05D30C2A24BF08C908C008C908C008C908C092072AD0920F15
:2044500022E00B780370491C401C521E22D08B07F7D1C30714D18307D8D0121F12D308C90F
:2044700003801B0C4380001D121FF8D20AE008C903701B0A43701B0A83701B0AC370001D14
:20449000121FF4D2121D05D00B780370491C401C521EF9D1604670472DE9F8432020EFF350
:2044B000118780F31188214CA068012102F044F94FF001094FF0000865692168A4F81C9053
:2044D0006A1A2168A4F81E80461B401A904227D387F3118840464519361A4846294602F0C8
:2044F00027F9B042F7D92021EFF3118781F31188E18B012903D14046294602F019F9B0F1FE
:20451000FF3F06D0A169801B814238BF081C411901E0A069291802F007F9A4F820902560AC
:20453000A4F81C8087F31188BDE8F883780100202DE9F843DFF87C900F4604464FF0FF3125
:20455000484602F035F9DFF870801D4800210AE0FF2A07D00368934202D958F822600EB1BA
:20457000002421E0491C1FB117F82120FE2AEFD100202060012660600546A0600EE0FF29B1
:204590000BD0636806FA01F048F8214018430B4960601268204601F043FB6D1C27B107EB02
:2045B00085021178FE29EAD1484602F0FDF82046BDE8F8839C1A0020C8160020007FC7677D
:2045D000641B00202DE9F04107467C68BE6804F1F00001F0A5FD1D493068096880690009B5
:2045F00023D202F015F91A4D8046287820B1022001F064FB00202870404602F005F93268DE
:204610001449906B20F020009063086820F480700860206A616A2569626A401A2062216A1D
:204630002B4638469847BDE8F0814FF4FA70B0FBF1F1012998BF0121F034204602F0F0F845
:20465000204602F0E9F8BDE8F081C04608050000A21B0020301000402DE9984302F0D8F8D8
:204670001F4CDFF87880814604F1E000007850B94446A0680146022088470746102001F09B
:2046900089F92FB320E000F0C9FC002820460FD1144909683222B2FBF1F101B9012100F105
:2046B0003004204602F0BCF8204602F0B5F80FE044460022A16880F8E0200220884707464B
:2046D000102001F067F91FB1A068014603208847484602F099F8BDE89883C046D404000089
:2046F000A81B002008050000F0B58468204A637DA17D257DADF1140D022643F00043FF299A
:2047100042EA050700934568019708D0E07DFF2805D041F000410243029104260392FE2120
:2047300005F140004DF826106946FFF701FFE864E86C002808BF002018D0617D0F2201F07C
:204750007BFBE86C217D102201F076FBA17DFF290BD0E07DFF2808D0E86C112201F06CFBF1
:20477000E86CE17D122201F067FB012005B0F0BD0000C0A02DE9F04107467E68BD6802F07C
:2047900047F8B16A39B929688969090903D202F03BF8BDE8F0810024B46202F035F8A87D9A
:2047B000FF2806D0E87DFF2803D03046294600F017FA2A681049906B20F02000906308682E
:2047D00020F48070086002F023F80C4D8046287818B1022001F072FA2C70404602F014F829
:2047F000716A306A3569726A401A3062316A2B4638469847BDE8F08130100040A21B0020F2
:204810007CB5042001F002FB022818D0032816D01A480068C0F38150032814BF41F28832E9
:204830004FF47A721748184C016854342046B2FBF1F101F0F5FF204601F0EEFF7CBD4FF0EF
:204850008056D6F8A4010E4D406803214FF040521C230446009100212846A047D6F8A40104
:2048700001214FF40072092340680091044600212846A047022001F021FA7CBDB43F005082
:2048900000A00C4008050000A81B0020F8B51F4CA0F5C060D4F8B810C4F8D4000029B8BF9B
:2048B00049420028B8BF404281422BDA4FF08057D7F8A401B4F8BC10154D40684FF47F4264
:2048D00008230646009128463021B047D7F8A401B4F8C01040684FF4F80212230646009123
:2048F00004212846B047D7F8A401B4F8D01040684FF440620A230646009120212846B047E1
:20491000012000E0002084F8D800F8BDA81B002000A00C40002213460A46194671B510F03E
:20493000030F0BD0002A82BF00F8011BB2F1010210F0030FF6D1002A08BF71BD11F0FF015C
:2049500041EA0121042A18D341EA0141082A0FD30E46102A08D30C460D46B2F10F0312F09B
:204970000F0272C0103BFCD812F0080F18BF42C012F0040F18BF40F8041B12F0020F18BFA6
:2049900020F8021B12F0010F18BF017071BD704738B544688568E06C01F0D2FB1848296812
:2049B000184A8B6B184088631068C0680146286888476868FEF768FF04F1680001F0DCFEB2
:2049D00004F1840001F0DCFEA07818B904F1B80001F0DEFE607818B904F1D40001F0D8FEE7
:2049F00004F1F00001F0D0FE01F012FF0021217001F00AFF04F1540001F052FB38BDC046D3
:204A10000DF8FFFFD001001008B50090114A0021002001F085FE0E4908600F49009808602E
:204A30000E4801F046FD0E494FF4806008600D49022008600D480C4908600E480C490860F5
:204A5000064A0D480D49002301F07EFE08BDC0468C1B0020A4190020F01A0020901800205A
:204A7000B0180020A8180020AC18002008020020A018002040420F00A017002009360000D1
:204A900008B50090114A0021002001F049FE0E4908600F49009808600E4801F00AFD0E4929
:204AB0004FF4806008600D49022008600D480C4908600E480C490860064A0D480D49002338
:204AD00001F042FE08BDC046901B0020A4190020F01A0020CC180020EC180020E4180020B4
:204AF000E818002008060020DC18002040420F0040180020692B000038B519491A4C0020D2
:204B10004822C1F8F30F94F8E200C1F8FF2F20B3012817D0022807D003281ED151F8310C87
:204B3000FFF7B4FE0B2016E051F8315C2846FDF771FC40F2FF50A84202D8801CA842F1D269
:204B5000082008E051F8310C00F060FB054800780028E7D0052084F8E400FDF731FF38BD22
:204B700039400C40E2040000A81B002038B50546880F26D300F054FF124801F03BFD1248AF
:204B90000078012803D005F1300001F00DFE0F4800240460022001F091F81120FEF774FE5C
:204BB000287C10B90E20FEF76FFE09480A49094A04700878147020B108480C70042101F0C6
:204BD0003FFC38BDD13B0000FD1F002000000460061B00209B1B0020991B00203C19002089
:204BF00038B50C462268916B054621F020019163E86C217D012200F061FEE86C217D0122F6
:204C100000F04AFFE86C217D002201F015F9E86CA17D002201F010F9A878012806D005F195
:204C3000B8004FF0FF3101F0C3FD03E0216888690009FCD2E86C217D102201F0FDF8A17D30
:204C5000FF2906D0E07DFF2803D0E86C112201F0F3F838BD1A4898B5D0F8781203680F0F0D
:204C700003F0FF03802B28BF002300F003FE4FF0FF3478B1401E07D0401E012802D9801EB9
:204C900019D01AE0BFB118E0381C12D0801E14D1143311E03846401E0BD0801E07D0001F7D
:204CB00003D0401E09D1163306E0152405E0142403E00A2401E00A335CB2204698BDC04656
:204CD000A0100050174870B50068C0F3046001F07CFC154B0246187800F01F0001F075FCAF
:204CF00082421ED0114E124C002101253160111A022905DC11F1020FB8BF6FF0010100E05B
:204D100002210818216800F01F0141F4F851A3F8661082422560EAD12068256020683560EA
:204D3000206870BD8813005006620840980020432C2009402DE9F04106467568B46801F006
:204D500067FDA96B31B30027AF6301F05DFD22681249906B20F4FA609063086820F400702E
:204D7000086001F055FD0E4C8046207818B1022000F0A4FF2770404601F046FD696B286B8A
:204D9000EF686A6B401A2863296B3B4630469847BDE8F08101F038FDBDE8F08130100040B6
:204DB000A11B002030B5401E4FF00004ADF12C0D0AD0401E04D0401E20D1FDF701FE1DE05F
:204DD00000F068FB044619E001A821462422082301F0E6FC06940B4DADF814400A49079400
:204DF000012201AB05F1780001F0D6FC074A23462C2105F19C00009301F0E6FC20460BB083
:204E100030BDC046A81B0020D9520000094B00002DE9F041054615F8017B90460E461CE0EC
:204E3000B8F1000F05F101050BD0FF2C09D8022015F8011B401E41EA0424F9D101E0042CF0
:204E500002D315F8011B00E0394630462246FFF765FDA61901E006F8010B15F8010B874223
:204E7000F9D115F8014B002CE9D115F8010B2C7800022418D4D1BDE8F081704738B518495E
:204E9000164D0446103909686868C1F30342C1F30353400812D22868050513EB257303D495
:204EB000102BA8BF0F2300E00023000412EB207203D4102AA8BF0F2200E0002242EA03128C
:204ED00001F47F4001F0FF03222C40EA024243EA020024BF01F08041084338BDAC3F005020
:204EF000881300500146184880B5383800688A0CC0F38367C0F38F2022D241F307210029F5
:204F10000BD54A420021400805D17F0806BF0127381C4FF6FF70521EF5D1002910DD4FF6C9
:204F3000FF72400040F00100824207D2780040F001070F2F92BF01200F27101C491EF0D1F8
:204F500040EA074080BDC0468813005010B501F05FFC1149097829B110490C6801F054FCCE
:204F7000204610BD01F050FC01F0AEFA0FA20CCA01F042FA0A4A126800231B184FEA020401
:204F900008A044EB010490E80600C91842EB04021046001C10BDC046981B00200430044003
:204FB0002C1B0020000000127A00000000093D0000000000164880B507683FB315498B6863
:204FD00003EA5300C00E21D2134A106880081DD2486880081AD21068096810F0050F4FEA1A
:204FF000114101F0F00101F5E0710AD1B9420DD2190F38BF40F00100D90E38BF40F004000F
:2050100003E0B94202D920F00500106080BDC04628500940AC3F00500000094038B50120AC
:2050300000F0F4FE012820D0114DD5F82401C4681048342101220023A047002808BF002000
:2050500014D0286800F076FF01F06AF90B4A0A4D93681168D060C01AA1EB910105FB00F3D8
:20507000180C884228BF011C1160012038BDC0468000001000A00C4040420F00301B002029
:20509000B0B5074601F0C4FB114905460878D8B1401EC0B20870B8B90E48082101F0D0F9FE
:2050B00097B10D4C2068683001F03AF80C4920680968C068094C3F1A2046B7FBF1F101F0ED
:2050D000AFFB204601F0A8FB284601F09DFBB0BD9F1B00203C1900207C1B0020D4190020A5
:2050F0000805000008B513480078AA2820D1124800788DF8000011480E490068202201F09E
:20511000B3FA0F49002008700E480078CC280FD00C480078BB2803D109490120087007E0EC
:2051300008480078DD2803D1054901200870FFE708BDC046841E0020A31E0020941B0020B4
:20515000FE1F00208A1E00202DE9F8438146EFF31188202080F311880125114E114CF56123
:20517000114F6560F86A016A14208847D9F81000810C14BF000C0420A0613868026823216A
:2051900000209047C6F88052206820F4C02040F480302060356088F31188BDE8F883C046C9
:2051B0000000244300200940840100102DE9FC41144C154F06468846700809D320684568C0
:2051D000002101220B461FFA88F000903846A847B00809D3206845680021022201231FFA51
:2051F00088F000903846A847F00809D320681FFA88F600210C220223446800963846A0471C
:20521000BDE8FC81A401001000A00C40134910B50A684BF2F5214843040AC2F3814001289D
:2052300006D100F04BFE00F019FC604304EB90540C4901F1E500007830B90948006820F07D
:205250007F402418640802E0002081F8E50006480460210C41600123836010BDB43F0050E0
:2052700010200940A81B00203C600C4070B50C4620B141680122A240114201D1022070BD70
:205290000D4E104B914300254160305D43F82450FF2804D00949096851F8201001E044F026
:2052B00020410748FEF766FE20464FF0FF3100F081FF284670BDC046601A0020841B002096
:2052D000007FC767C81600201548134A1349E4300078801E0A281CD8DFE800F018130E1BA2
:2052F000130E1B130E1B06C010688008FCD250688008FCD2FDF764BB08688008FCD3FDF7B6
:205310005FBB08688008FCD2FDF75ABB10688008FCD3FDF755BBC04634600C4038600C40F7
:20533000A81B0020B0B5154C241D20680004070C21D000F0C3FD104991F90720824205DD83
:2053500010F1800FB8BF6FF07F00C8718D88BD4210D80A68D4F8D40F801A801C1F2888BF3E
:205370001F207F1B4008C7404FF6FF70EF19B84238BF071C8F80B0BD581B0020301009408D
:20539000ADF1080D12480090124801900099002081F850000099012081F8350000990220D0
:2053B00081F839000099032081F837000099042081F86E000099052081F86B0000990620BA
:2053D00081F8410004490198416002B07047C04640030021BC030021F505002198B5044617
:2053F000880F1FD36168486808B180476168886808B9CF6877B10C4A1768002FFCD000234F
:20541000136008B180476168C86800B18047074800F036FE064801F0EDF806484FF00051A3
:2054300001F00EF898BDC0461C10044001000706E93000003C190020154909681E280ADC03
:205450001E2819D00C380FD00A380FD0001F0FD0C01E0FD01AE0243810D0001F10D0401E7B
:2054700010D0401E10D011E0086870474868704788687047C8687047086970474869704761
:2054900088697047C8697047086A704700207047F001002038B5134D95F8E100002410B9B3
:2054B0001148007860B101F0B3F995F8E310002906BF012185F8E310012401F0A5F90CB1EC
:2054D000002038BD022000F011FC0E20FEF746FA00F06CFD01280EBF0120002085F8E20036
:2054F00038BDC046A81B0020E20400000246F8B5084611464C6820381DD0401E18D0401EA1
:2055100018BF6FF001001AD18D6801F081F90C4E074630680069014628688847B0F1FF3FCC
:20553000F7D100253846A56301F06EF92846F8BD0021084601E00121002084F82D10F8BD6D
:20555000D0010010F8B5044601F062F9844611481C3890F82110C90803D390F82010A142A5
:2055700012D00D49091D068B0B68012504F10C0705FA07F2A540934335430B600F680583F6
:2055900017B9034900200870604601F03DF9F8BDFC1F0020141A002008100440012838B5CA
:2055B0001ED1012000F032FC01281BD000F0D0FE0E4D0D480122322305F1E00100680A70FA
:2055D000B3FBF0F404B914463035284600F0A8FD2846214601F024F9284601F01DF901E071
:2055F00000F004FB002038BD08050000A81B002010B50446207B00F00F00022819D10E4894
:205610000078012815D0FFF7A1FCA1686FF070428908A1EB900082420BDDB0F1704FBCBF13
:205630000649084406490968C96801F57A71814200DB002010BDC046FC1F0020F6FFFF1F0E
:205650007C1B002010B5012000F0E0FB01280CD00C480B4C016832222046B2FBF1F101F07F
:20567000DFF8204601F0D8F810BD074800F0C2FF064A0749074811600024046010BDC04694
:20569000D419002008050000B9180000001004401C1B0020701B002010B510480E4C0168D9
:2056B0000C40E1430160A10907D34068800904D30D484FF4005100F0C3FE14F4602F09D073
:2056D0000748016804F460240C4304600548002100F0B6FE10BDC04620000E000810044064
:2056F000141A0020701900203C1900200F4908680028FCD1104A131D0D49186820F00300FE
:2057100001430C480068C0080CD2106810F0030F0AD041F003001860106800F0030003282D
:20573000FAD101E041F00101196070470C00684204000020B03F00500040034070B54468DD
:205750000D4604F1F00000F0EBFC0E490E4A607F267FA36951F8200012680949F0348019F9
:20577000C01D45436943B1FBF3F06430B0FBF2F1204601F055F8204601F04EF870BDC046E3
:2057900040420F00F0030000080500002DE998430446A76D9946904607B1B847002002216A
:2057B00000EA090001EA0801002808BF00290BD104F1500090E8060008EA010109EA020052
:2057D000002808BF002907D004F1600080E8000304F1300000F0E8FFBDE898832DE9F04107
:2057F00006467568B76801F013F80E4C8046207820B1022000F062FA00202070404601F037
:2058100003F83968886B20F4FA608863286B696BEB686A6B401A2863296B30469847BDE88E
:20583000F081C046A11B0020F8B506460F4D104F7388002417E0A00000EBC40032185168E9
:205850009068D26852B9AF420BD00A7855F822200346491C08461946904701E0FEF7CEFD4B
:205870007388641CA4B2A342E5DCF8BDA4080000AC080000104A1068C0F30F314BF69A10DC
:20589000884207D111680B20B0EB117F14BF0020042070472430884208BF01200BD04BF697
:2058B0004130884208BF032005D0213888420CBF02204FF0FF3070471813005038B50E4BE8
:2058D0001B680D461446AB4204D90C4951F82510884201D0022038BD00F09AFF0849103916
:2058F0000B68AC400122AA4093431C430C6000F08BFF002038BDC046641B0020C816002059
:20591000E02002402DE9F84300F098FE0D4D2F688046A7B1DFF830900024012606FA04F079
:2059300018EA000F07D059F8240020B1036813B1214698472F68641CE4B2BC42EED3BDE8A3
:20595000F883C046641B0020C8160020F0B5044605AFADF10C0D03B9094B97E860008DE85B
:205970006000FCF73DFF011C44BF06A003C804D406A20CCA2046FEF741FA03B0F0BDC046A5
:205990009D5700000000000000000080020000000000007070B5104C0646204600F05AFE96
:2059B0000025B0B9204600F081FE0446A06806420AD0E06822690021034630469847054623
:2059D000012D08BF012005D0204600F071FE041CECD1284670BDC046A81B00200C48854687
:2059F0000C4885446F4607208743BD460A486F4607600A48002803D07946491D8E460047D6
:205A1000FEF7BEFB00F0ECFC00F086FEFEE7C046004E002000020000EC1F00205966000037
:205A30000C49086820F0020040F4007008600A48032140F8041C41F23001816001210160DD
:205A50005022826001604FF4CA628260016040F80C1C7047000004600C4104400D4938B580
:205A7000D1F8EC3209681B3800FB00F409060A1643F3072100FB01F5190660430916614379
:205A90004243891201EBE50101EBA24000EB234038BDC046A410005084460B4880B517463A
:205AB00002688A42604604D9084A52F82120904201D0022080BD002307B10123044A0020D1
:205AD000E03A535480BDC046641B0020C8160020E020024038B50B4C2068B0F1FF3F10D147
:205AF0000021094D216004E0896888472168491C21608A00284602EBC102801801680029B9
:205B1000F2D138BDE81F002090040000F8B50C4E446885680F4608E0216B0870606B216BCA
:205B30007F1E401C6063491C21633FB130680069014628688847B0F1FF3FEDD13846F8BD49
:205B5000D00100102DE9B0430F46044600F0B6FD04F1280292E800034B464246FCF760FB06
:205B700005460B462A464046494600F045FC17B1303484E803002846BDE8B083F8B5446889
:205B900085680F1C11D00A4E3068216A826909782868904748B1216A606A7F1E01F10101CF
:205BB000216200F101006062EED13846F8BDC046D001001098B50146886840F603031A46A5
:205BD0002027521C02E040687F1EFFB260B15FB10488A34218BFA242F5D1C9681CC81831B7
:205BF0001CC189C881E8890098BD704710B503200021FFF7DBFA012000F008F918B106486C
:205C1000006800F097F900F08BFB044C083C606000F054F9206110BD80000010381B002034
:205C30000A4B10B51B6802F0FF04A34206D9084C02F0FF0354F82330984201D0022010BD7D
:205C500008461146FEF796F9002010BD641B0020C8160020F8B50646376800240D462C60E6
:205C70001FB900F0D5FD374608E000F0D1FD00E03F6839680029FBD1BD4201D03D600124A8
:205C900000F0C2FD2046F8BD70B5044604F128020CCA0846002100F0AFFB04F1300292E81C
:205CB00060002D1846EB0106290C3004014300F095F8383484E8600070BD704710B50446A2
:205CD00000F0A6FD084BE21892F8E810491EC9B282F8E81021B99A680121A1408A439A6058
:205CF00000F092FD10BDC046A81B002038B5044600F08EFD084A02F108031D680121A140D5
:205D100012192943196092F8E810491C82F8E81000F07AFD38BDC046A81B0020094902046D
:205D300080B5120C41F8082CC0F3074041F8040C0120086004480768002FFCD00020086089
:205D500080BDC04644600C4084088C43084A08B51268824298BF002009D901B90549064BA6
:205D7000820002EBC00298180268D268904708BDE81F0020480400009004000010B500F036
:205D90003BFD00F03DFD032000F0C2FC06481030006830B1034C204600F0ADFB204600F046
:205DB000A7FB10BD0F650000A4010020084910B5002008600120C861064CA062A16A206064
:205DD00005480068016A14208847A06A10BDC0460000244304200940B001001010B50C4607
:205DF00000F09EFA211AB1F1004F08D8011B091DC90F05D1001DA04288BF041C00E0041DA8
:205E100001481830046010BD0020094002460849084810B5042A07BF4FF0C0421D234FF0E5
:205E300080521C230968CC683421A04710BDC046A401001000A00C4008B5084B1B688B428C
:205E500004D9074B53F82130984201D0022008BD0846114600F0AEF9002008BD641B002015
:205E7000C816002008B509490748B1F9001000680022FCF7D3F804480068FDF7CBFA0249FC
:205E90000020086008BDC046F81A0020FC1A002038B52020EFF3118580F31188064CA0682C
:205EB000002100F049FC6169081AA169814238BF002085F3118838BD7801002007488168D5
:205ED00041F31002064991F900100068A0F5407041430811121A80321012704728500940C1
:205EF0000C130050202838BF064809D306480C300068000381158905C0F309300003084367
:205F10007047C04600803F408C13005010B5044610460A46211C14BF0028022006D0C860B9
:205F30008A6003480B6100F02DF8002010BDC046A81B002070B5054600F062FB002400B92B
:205F50000124054E30680028FCD0A847012030600CB100F05BFB70BD00800C4008B528307C
:205F700090E80C0005A003C8FCF75AF9002908BFB0F1FF3F88BF4FF0FF3008BD000000008E
:205F9000907E000038B50D46044600F08DFB00212A462346116059685160596801B9214622
:205FB0000A605A6000F030FC38BDFEE706490868002818BF012005D1044B402001221860B8
:205FD0000020CA617047C04604800C402C500C4008B500F0B1F900F0804100F002000843CC
:205FF00004D003484FF0005100F02AFA08BDC0463C190020074808B51030006828B10348B6
:2060100000F079FA024800F073FA08BD1161000039640000A4010020074810B51030006811
:2060300030B1044C204600F066FA204600F060FA10BDC046FB5B0000A4010020074808B5BF
:2060500000F062FBFFF7D6FF00F05AFB00F054FB00F04EFB00F048FB08BDC0468D5D000073
:20607000202838BF002008D304480C300068C10C01F44071C0F38450084370478C130050FB
:20609000064A014610680028FCD10023D3611160D0690028FCD0D361506870470010044000
:2060B00038B5054600F0B4FB04460448294600F0D5F8204600F0A8FB38BDC046A81B002060
:2060D0000648006800210171044800680349006808600248006800797047C046881B0020EC
:2060F000064901281CBF081C002104D10846002100F8021C202101707047C0460262084083
:2061100010B5064C206900F0EBFA0146A06800B9E160A068401CA06010BDC046A4010020B5
:20613000002181820449C0684969814203D10348006800F071BB7047780100200C0500003D
:2061500010B5044607E090FAA0F0B0FA80F0C1B22046FFF78BF860680028F4D110BD022906
:206170004FF0000204D0012808BF4FF47A7203E0012808BF40F2EE22104670470548143820
:2061900001680348084001F07C4108437047C046FCFCFC00881300500549383908680968BE
:2061B000C0F3870001F0030140EA01207047C04688130050002948BF0021044A02EB8000A1
:2061D000026861F3050202607047C046001008400349044809680160034800F031B9C046DE
:2061F000E0200240E020026008190020044808B5007820B10348001D006800B1804708BD4B
:206210008E1C0020D404000008B500F05DF9034908600348042100F013F908BD701B002039
:206230003C19002008B504480090044900984FF43172FEF7E3F808BD1C0400213C00000063
:2062500008B50548034A41680120106048698969884708BD04200940E40100200A681AB9AF
:206270004A6842600A6801E04B685360496801B901460A607047FEE7044884380068C0F326
:2062900002400428C8BF4FF0FF30704718130050222804D303480068C0F30070704701208A
:2062B0007047C0468C130050222804D303480068C0F34070704701207047C0468C13005067
:2062D00004481838006800F47C010004000C08437047C04688130050202805D303480C308F
:2062F0000068C0F301507047002070478C130050222804D303480068C0F3C0607047002027
:206310007047C0468C130050222804D303480068C0F34550704700207047C0468C13005022
:2063300004480168436802688A42FAD1080440EA1340704708200940044910310868C34337
:206350000B600A681042FBD17047C0460010044008B503200121FEF729FFFFF7E1FF0149E2
:20637000086008BD381B002038B5054600F050FA2C680CB12168296000F046FA204638BD0D
:20639000044900220A7040680270014802707047A21B0020A11B0020044910B51CC91CC0EC
:2063B0001CC91CC00EC980E80E0010BD48040000012814BF002140F2FF71024A002011600A
:2063D0007047C0460000046008B5044901200870FFF748FD00F0DAF808BDC046FF1F0020E3
:2063F0000449B1F1FF3F07BF0020011C0868091DFDF772BEFFFFFFFF30B502FB01F403FBD2
:2064100000444FF00005E2FB00542146284630BD08B500F013F901460248006800F086F8D1
:2064300008BDC0467C1B002004498868401E886003D10869C96800F04FB97047A40100205D
:206450002022EFF3118382F31188426A1143416283F3118800F08CB90348044900688142BC
:2064700001D0FFF7A2BD704794CA01107047392008B5FFF7FFF9012803D1FEF7EBFB1428F1
:2064900000DAFEE708BD10B50446FFF7C5FD032000F03EF9204600F03FF910BD08B50090AF
:2064B000009828B1009800213C22082300F010F908BD08B50090009828B1009800213C2286
:2064D000082300F005F908BD034A1168506813688B42FAD17047C04608200940014603487D
:2064F0000068C84000F001007047C046802002400349086070470249091F086070477047D8
:206510008C1F002008B500F0DFF80248006800F02FF908BD8401002000B50921ADF1240D3A
:20653000684600F0CDF809B000BD7047024A08B51268904708BDC046801B00200248006829
:20655000C0F3C1407047C0468C13005002480C380068C0F30D0070478813005001460248E2
:206570001022FDF74BBFC0461800002102490EC980E80E007047C046E404000008B5FEF7AD
:206590007CFCFFF74FFEFEF7FBFE08BD08B50248006800F009F908BD901B0020102802D37F
:2065B000014910380860704700EF00E0042808B502D11046FDF7A0FA002008BD0068010954
:2065D0002CBF042000F00300704701461628A8BFA0F1200108467047D0F80320C31D084636
:2065F0001946FDF70BBF08B500F068F8000C0904084308BD014908607047C046801B00200E
:20661000EFF3108072B6704700207047EFF3108062B670470020704701480830006870478A
:20663000A81B00200149ED31085C7047A81B0020014800687047C046881B0020014880689F
:206650007047C046C801002008B5FDF7E9FDFFF703FF08BD0168002001B90120704708B558
:2066700003681B69984708BD08B50368DB69984708BD4068D43000F097B808B5FFF77EFF4C
:2066900008BD4068B83000F08FB84FF0FF3070474FF0FF3070470020FEF7F2BC0122FEF739
:2066B000B7BB81604260704700F0B2B800687047006870470068704700207047FFF704BFD7
:2066D000DFF800F009C30110DFF800F063BE0110DFF800F0D5C10110DFF800F049C20110BC
:2066F000DFF800F045C20110DFF800F005C30110DFF800F039C20110DFF800F089C2011015
:20671000DFF800F091B70110DFF800F07DC60110DFF800F041C00110DFF800F0CDC70110E9
:20673000DFF800F0A9B50110DFF800F0B9BE0110DFF800F009A80110DFF800F091C0011012
:20675000DFF800F051C00110DFF800F025B10110DFF800F045C70110DFF800F03DC80110D1
:20677000DFF800F095B20110DFF800F0F5BF0110DFF800F01DB30110DFF800F05DC20110BF
:20679000DFF800F0E5C20110DFF800F0B5C20110DFF800F0DDC20110DFF800F075B50110A2
:2067B000DFF800F081C10110DFF800F041AC0110DFF800F001A00110DFF800F085B0011064
:2067D000DFF800F0C9C10110DFF800F029AF0110DFF800F039C10110DFF800F005B7011031
:2067F000DFF800F0BDC10110DFF800F045BA0110DFF800F0DDB50110DFF800F0D1C0011089
:20681000DFF800F0F1C00110DFF800F015C20110DFF800F045C10110DFF800F0DFBF0110DC
:08683000DFF800F0BDC2011009
:020000040001F9
:20FFA80000008001300088FFFDFF58003AFFBFF3FFFFFFFFFFFFFFFFFFFFFFFFFFFFFFFFD2
:20FFC800FFFFFFFFFFFFFFFFFFFFFFFFFFFFFFFFFFFFFF00FFFFFFFF00FFFFFFC500C5FFAA
:18FFE800000000FF00000000FFFFFFFFFFFFFFFFFFFFFFFFFFFFFFFF12
:00000001FF
